:03000000020100FA
:2001000012013712019A1202481201D2E53FB45A0280031201FA308D1BE53FB45A031203C1
:2001200004AB38BB000512025980061201441202D412024880D3227580FF7590FF75A0FF09
:2001400075B0FF22E5315403B40211E53DB4A50CC2A0E53320E40530E2028008753800755D
:2001600036008035E53904B4082B753900E59054C3853AF053F07C45F0F590A83BE53A2304
:20018000F53AB85A08B4BF11753AFB800CB4DF09753AFB8004F53980002275300075310176
:2001A000753300753400753800753600753700753900753B00753C96753DA5753E00754086
:2001C00000754100209607753F5A75400122753FA522E5905403B531028019E5905403F53D
:2001E000327828E5905403B5320A79FA1201F5D8F2853231220000D9FC22E580604979FAA9
:200200001201F5E5806040B53302803BF5357804E580B5353279FA1201F5D8F4B5342205AE
:200220003EE53EB41421853433E5335418B410028007E5335405B4010E753800753D5A804A
:2002400006853534753E0022758901758800758A00758C1AC28DD28C22D2A0E53C600415E4
:200260003C8019E53320E31430E011E53DB4A50C753801753AFB753601753700E53320E208
:2002800004D2928004C292800020E004D2938004C293800020E104D2948004C294800020F7
:2002A000E504D2958004C2958000E53DB45A11E53904B40807753900B2968017F53980131F
:2002C000E531B4020AD2962096095333F78004C296800022E536602BE53320E51D753BA5F1
:2002E000E53704F537B4101B753700E53604F536B46E10D2A0753D5A80097536017537004C
:20030000753B5A22E54060440541E541B4103D7541000540E540B40A057533CD802EB414AD
:20032000057533CF8026B41E057533C7801EB428057533E78016B432057533C7800EB43CD9
:0D0340000B7533C775365A754000800022DA
:00000001FF
